{
  "_format": "hh-sol-artifact-1",
  "contractName": "CertificateDao",
  "sourceName": "contracts/CertificateDao.sol",
  "abi": [
    {
      "inputs": [],
      "stateMutability": "nonpayable",
      "type": "constructor"
    },
    {
      "anonymous": false,
      "inputs": [
        {
          "indexed": true,
          "internalType": "address",
          "name": "owner",
          "type": "address"
        },
        {
          "indexed": true,
          "internalType": "address",
          "name": "spender",
          "type": "address"
        },
        {
          "indexed": false,
          "internalType": "uint256",
          "name": "value",
          "type": "uint256"
        }
      ],
      "name": "Approval",
      "type": "event"
    },
    {
      "anonymous": false,
      "inputs": [
        {
          "indexed": true,
          "internalType": "address",
          "name": "from",
          "type": "address"
        },
        {
          "indexed": true,
          "internalType": "address",
          "name": "to",
          "type": "address"
        },
        {
          "indexed": false,
          "internalType": "uint256",
          "name": "value",
          "type": "uint256"
        }
      ],
      "name": "Transfer",
      "type": "event"
    },
    {
      "inputs": [],
      "name": "_daoDepositAmount",
      "outputs": [
        {
          "internalType": "uint256",
          "name": "",
          "type": "uint256"
        }
      ],
      "stateMutability": "view",
      "type": "function"
    },
    {
      "inputs": [
        {
          "internalType": "address",
          "name": "owner",
          "type": "address"
        },
        {
          "internalType": "address",
          "name": "spender",
          "type": "address"
        }
      ],
      "name": "allowance",
      "outputs": [
        {
          "internalType": "uint256",
          "name": "",
          "type": "uint256"
        }
      ],
      "stateMutability": "view",
      "type": "function"
    },
    {
      "inputs": [
        {
          "internalType": "address",
          "name": "spender",
          "type": "address"
        },
        {
          "internalType": "uint256",
          "name": "amount",
          "type": "uint256"
        }
      ],
      "name": "approve",
      "outputs": [
        {
          "internalType": "bool",
          "name": "",
          "type": "bool"
        }
      ],
      "stateMutability": "nonpayable",
      "type": "function"
    },
    {
      "inputs": [
        {
          "internalType": "address",
          "name": "account",
          "type": "address"
        }
      ],
      "name": "balanceOf",
      "outputs": [
        {
          "internalType": "uint256",
          "name": "",
          "type": "uint256"
        }
      ],
      "stateMutability": "view",
      "type": "function"
    },
    {
      "inputs": [
        {
          "internalType": "string",
          "name": "uuid",
          "type": "string"
        }
      ],
      "name": "bindWallet",
      "outputs": [],
      "stateMutability": "nonpayable",
      "type": "function"
    },
    {
      "inputs": [
        {
          "internalType": "string",
          "name": "uuid",
          "type": "string"
        },
        {
          "internalType": "address",
          "name": "newWallet",
          "type": "address"
        }
      ],
      "name": "changeWallet",
      "outputs": [],
      "stateMutability": "nonpayable",
      "type": "function"
    },
    {
      "inputs": [],
      "name": "decimals",
      "outputs": [
        {
          "internalType": "uint8",
          "name": "",
          "type": "uint8"
        }
      ],
      "stateMutability": "view",
      "type": "function"
    },
    {
      "inputs": [
        {
          "internalType": "address",
          "name": "spender",
          "type": "address"
        },
        {
          "internalType": "uint256",
          "name": "subtractedValue",
          "type": "uint256"
        }
      ],
      "name": "decreaseAllowance",
      "outputs": [
        {
          "internalType": "bool",
          "name": "",
          "type": "bool"
        }
      ],
      "stateMutability": "nonpayable",
      "type": "function"
    },
    {
      "inputs": [
        {
          "internalType": "address",
          "name": "walletAddress",
          "type": "address"
        }
      ],
      "name": "getDeposit",
      "outputs": [
        {
          "internalType": "uint256",
          "name": "",
          "type": "uint256"
        }
      ],
      "stateMutability": "view",
      "type": "function"
    },
    {
      "inputs": [
        {
          "internalType": "string",
          "name": "uuid",
          "type": "string"
        }
      ],
      "name": "getUserInfo",
      "outputs": [
        {
          "internalType": "bool",
          "name": "",
          "type": "bool"
        }
      ],
      "stateMutability": "view",
      "type": "function"
    },
    {
      "inputs": [
        {
          "internalType": "string",
          "name": "uuid",
          "type": "string"
        }
      ],
      "name": "getWallet",
      "outputs": [
        {
          "internalType": "address",
          "name": "",
          "type": "address"
        },
        {
          "internalType": "uint8",
          "name": "",
          "type": "uint8"
        }
      ],
      "stateMutability": "view",
      "type": "function"
    },
    {
      "inputs": [
        {
          "internalType": "address",
          "name": "spender",
          "type": "address"
        },
        {
          "internalType": "uint256",
          "name": "addedValue",
          "type": "uint256"
        }
      ],
      "name": "increaseAllowance",
      "outputs": [
        {
          "internalType": "bool",
          "name": "",
          "type": "bool"
        }
      ],
      "stateMutability": "nonpayable",
      "type": "function"
    },
    {
      "inputs": [],
      "name": "isDeposit",
      "outputs": [
        {
          "internalType": "bool",
          "name": "",
          "type": "bool"
        }
      ],
      "stateMutability": "view",
      "type": "function"
    },
    {
      "inputs": [],
      "name": "name",
      "outputs": [
        {
          "internalType": "string",
          "name": "",
          "type": "string"
        }
      ],
      "stateMutability": "view",
      "type": "function"
    },
    {
      "inputs": [],
      "name": "stake",
      "outputs": [],
      "stateMutability": "nonpayable",
      "type": "function"
    },
    {
      "inputs": [
        {
          "internalType": "address",
          "name": "walletAddress",
          "type": "address"
        },
        {
          "internalType": "uint256",
          "name": "amount",
          "type": "uint256"
        }
      ],
      "name": "stakeAmount",
      "outputs": [],
      "stateMutability": "nonpayable",
      "type": "function"
    },
    {
      "inputs": [],
      "name": "symbol",
      "outputs": [
        {
          "internalType": "string",
          "name": "",
          "type": "string"
        }
      ],
      "stateMutability": "view",
      "type": "function"
    },
    {
      "inputs": [],
      "name": "totalSupply",
      "outputs": [
        {
          "internalType": "uint256",
          "name": "",
          "type": "uint256"
        }
      ],
      "stateMutability": "view",
      "type": "function"
    },
    {
      "inputs": [
        {
          "internalType": "address",
          "name": "to",
          "type": "address"
        },
        {
          "internalType": "uint256",
          "name": "amount",
          "type": "uint256"
        }
      ],
      "name": "transfer",
      "outputs": [
        {
          "internalType": "bool",
          "name": "",
          "type": "bool"
        }
      ],
      "stateMutability": "nonpayable",
      "type": "function"
    },
    {
      "inputs": [
        {
          "internalType": "address",
          "name": "from",
          "type": "address"
        },
        {
          "internalType": "address",
          "name": "to",
          "type": "address"
        },
        {
          "internalType": "uint256",
          "name": "amount",
          "type": "uint256"
        }
      ],
      "name": "transferFrom",
      "outputs": [
        {
          "internalType": "bool",
          "name": "",
          "type": "bool"
        }
      ],
      "stateMutability": "nonpayable",
      "type": "function"
    },
    {
      "inputs": [
        {
          "internalType": "string",
          "name": "uuid",
          "type": "string"
        }
      ],
      "name": "unbindWallet",
      "outputs": [],
      "stateMutability": "nonpayable",
      "type": "function"
    },
    {
      "inputs": [
        {
          "internalType": "string",
          "name": "uuid",
          "type": "string"
        }
      ],
      "name": "verifyWallet",
      "outputs": [],
      "stateMutability": "nonpayable",
      "type": "function"
    },
    {
      "inputs": [],
      "name": "withdraw",
      "outputs": [],
      "stateMutability": "nonpayable",
      "type": "function"
    }
  ],
  "bytecode": "0x60806040523480156200001157600080fd5b506040518060400160405280600981526020017f44504b4920436f696e00000000000000000000000000000000000000000000008152506040518060400160405280600381526020017f44504b000000000000000000000000000000000000000000000000000000000081525081600390816200008f9190620004af565b508060049081620000a19190620004af565b505050620000e433620000b96200011d60201b60201c565b600a620000c7919062000726565b6305f5e100620000d8919062000777565b6200012660201b60201c565b620000f46200011d60201b60201c565b600a62000102919062000726565b61138862000111919062000777565b60088190555062000880565b60006012905090565b600073ffffffffffffffffffffffffffffffffffffffff168273ffffffffffffffffffffffffffffffffffffffff160362000198576040517f08c379a00000000000000000000000000000000000000000000000000000000081526004016200018f9062000823565b60405180910390fd5b620001ac600083836200022b60201b60201c565b8060026000828254620001c0919062000845565b92505081905550806000808473ffffffffffffffffffffffffffffffffffffffff1673ffffffffffffffffffffffffffffffffffffffff1681526020019081526020016000206000828254019250508190555062000227600083836200023060201b60201c565b5050565b505050565b505050565b600081519050919050565b7f4e487b7100000000000000000000000000000000000000000000000000000000600052604160045260246000fd5b7f4e487b7100000000000000000000000000000000000000000000000000000000600052602260045260246000fd5b60006002820490506001821680620002b757607f821691505b602082108103620002cd57620002cc6200026f565b5b50919050565b60008190508160005260206000209050919050565b60006020601f8301049050919050565b600082821b905092915050565b600060088302620003377fffffffffffffffffffffffffffffffffffffffffffffffffffffffffffffffff82620002f8565b620003438683620002f8565b95508019841693508086168417925050509392505050565b6000819050919050565b6000819050919050565b6000620003906200038a62000384846200035b565b62000365565b6200035b565b9050919050565b6000819050919050565b620003ac836200036f565b620003c4620003bb8262000397565b84845462000305565b825550505050565b600090565b620003db620003cc565b620003e8818484620003a1565b505050565b5b81811015620004105762000404600082620003d1565b600181019050620003ee565b5050565b601f8211156200045f576200042981620002d3565b6200043484620002e8565b8101602085101562000444578190505b6200045c6200045385620002e8565b830182620003ed565b50505b505050565b600082821c905092915050565b6000620004846000198460080262000464565b1980831691505092915050565b60006200049f838362000471565b9150826002028217905092915050565b620004ba8262000235565b67ffffffffffffffff811115620004d657620004d562000240565b5b620004e282546200029e565b620004ef82828562000414565b600060209050601f83116001811462000527576000841562000512578287015190505b6200051e858262000491565b8655506200058e565b601f1984166200053786620002d3565b60005b8281101562000561578489015182556001820191506020850194506020810190506200053a565b868310156200058157848901516200057d601f89168262000471565b8355505b6001600288020188555050505b505050505050565b7f4e487b7100000000000000000000000000000000000000000000000000000000600052601160045260246000fd5b60008160011c9050919050565b6000808291508390505b60018511156200062457808604811115620005fc57620005fb62000596565b5b60018516156200060c5780820291505b80810290506200061c85620005c5565b9450620005dc565b94509492505050565b6000826200063f576001905062000712565b816200064f576000905062000712565b81600181146200066857600281146200067357620006a9565b600191505062000712565b60ff84111562000688576200068762000596565b5b8360020a915084821115620006a257620006a162000596565b5b5062000712565b5060208310610133831016604e8410600b8410161715620006e35782820a905083811115620006dd57620006dc62000596565b5b62000712565b620006f28484846001620005d2565b925090508184048111156200070c576200070b62000596565b5b81810290505b9392505050565b600060ff82169050919050565b600062000733826200035b565b9150620007408362000719565b92506200076f7fffffffffffffffffffffffffffffffffffffffffffffffffffffffffffffffff84846200062d565b905092915050565b600062000784826200035b565b915062000791836200035b565b9250828202620007a1816200035b565b91508282048414831517620007bb57620007ba62000596565b5b5092915050565b600082825260208201905092915050565b7f45524332303a206d696e7420746f20746865207a65726f206164647265737300600082015250565b60006200080b601f83620007c2565b91506200081882620007d3565b602082019050919050565b600060208201905081810360008301526200083e81620007fc565b9050919050565b600062000852826200035b565b91506200085f836200035b565b92508282019050808211156200087a576200087962000596565b5b92915050565b61216480620008906000396000f3fe608060405234801561001057600080fd5b506004361061014d5760003560e01c80637bc3b5ff116100c3578063a4e2df661161007c578063a4e2df661461038e578063a9059cbb146103bf578063d19e4856146103ef578063dd62ed3e1461040b578063e1254fba1461043b578063ffc2c9b71461046b5761014d565b80637bc3b5ff146102ba5780637c9b7fdd146102d857806387a858d2146103085780638ec012b91461032457806395d89b4114610340578063a457c2d71461035e5761014d565b80633950935111610115578063395093511461020c5780633a4b66f11461023c5780633ccfd60b146102465780634b5effc2146102505780635b2b14451461026c57806370a082311461028a5761014d565b806306fdde0314610152578063095ea7b31461017057806318160ddd146101a057806323b872dd146101be578063313ce567146101ee575b600080fd5b61015a610487565b6040516101679190611689565b60405180910390f35b61018a60048036038101906101859190611753565b610519565b60405161019791906117ae565b60405180910390f35b6101a861053c565b6040516101b591906117d8565b60405180910390f35b6101d860048036038101906101d391906117f3565b610546565b6040516101e591906117ae565b60405180910390f35b6101f6610575565b6040516102039190611862565b60405180910390f35b61022660048036038101906102219190611753565b61057e565b60405161023391906117ae565b60405180910390f35b6102446105b5565b005b61024e6106eb565b005b61026a60048036038101906102659190611753565b6107c6565b005b610274610876565b60405161028191906117d8565b60405180910390f35b6102a4600480360381019061029f919061187d565b61087c565b6040516102b191906117d8565b60405180910390f35b6102c26108c4565b6040516102cf91906117ae565b60405180910390f35b6102f260048036038101906102ed91906119df565b61090e565b6040516102ff91906117ae565b60405180910390f35b610322600480360381019061031d9190611a28565b6109de565b005b61033e600480360381019061033991906119df565b610b93565b005b610348610dcd565b6040516103559190611689565b60405180910390f35b61037860048036038101906103739190611753565b610e5f565b60405161038591906117ae565b60405180910390f35b6103a860048036038101906103a391906119df565b610ed6565b6040516103b6929190611a93565b60405180910390f35b6103d960048036038101906103d49190611753565b610f53565b6040516103e691906117ae565b60405180910390f35b610409600480360381019061040491906119df565b610f76565b005b61042560048036038101906104209190611abc565b61104e565b60405161043291906117d8565b60405180910390f35b6104556004803603810190610450919061187d565b6110d5565b60405161046291906117d8565b60405180910390f35b610485600480360381019061048091906119df565b61111e565b005b60606003805461049690611b2b565b80601f01602080910402602001604051908101604052809291908181526020018280546104c290611b2b565b801561050f5780601f106104e45761010080835404028352916020019161050f565b820191906000526020600020905b8154815290600101906020018083116104f257829003601f168201915b5050505050905090565b6000806105246111e6565b90506105318185856111ee565b600191505092915050565b6000600254905090565b6000806105516111e6565b905061055e858285611352565b6105698585856113de565b60019150509392505050565b60006012905090565b6000806105896111e6565b90506105aa81858561059b858961104e565b6105a59190611b8b565b6111ee565b600191505092915050565b6000600560003373ffffffffffffffffffffffffffffffffffffffff1673ffffffffffffffffffffffffffffffffffffffff1681526020019081526020016000205414610637576040517f08c379a000000000000000000000000000000000000000000000000000000000815260040161062e90611c0b565b60405180910390fd5b6008546106433361087c565b1015610684576040517f08c379a000000000000000000000000000000000000000000000000000000000815260040161067b90611c77565b60405180910390fd5b61069133306008546113de565b600854600560003373ffffffffffffffffffffffffffffffffffffffff1673ffffffffffffffffffffffffffffffffffffffff16815260200190815260200160002060008282546106e29190611b8b565b92505081905550565b6000600560003373ffffffffffffffffffffffffffffffffffffffff1673ffffffffffffffffffffffffffffffffffffffff168152602001908152602001600020541161073757600080fd5b6107813033600560003373ffffffffffffffffffffffffffffffffffffffff1673ffffffffffffffffffffffffffffffffffffffff168152602001908152602001600020546113de565b600560003373ffffffffffffffffffffffffffffffffffffffff1673ffffffffffffffffffffffffffffffffffffffff16815260200190815260200160002060009055565b806107d03361087c565b1015610811576040517f08c379a000000000000000000000000000000000000000000000000000000000815260040161080890611ce3565b60405180910390fd5b61081c3330836113de565b80600560008473ffffffffffffffffffffffffffffffffffffffff1673ffffffffffffffffffffffffffffffffffffffff168152602001908152602001600020600082825461086b9190611b8b565b925050819055505050565b60085481565b60008060008373ffffffffffffffffffffffffffffffffffffffff1673ffffffffffffffffffffffffffffffffffffffff168152602001908152602001600020549050919050565b600080600560003373ffffffffffffffffffffffffffffffffffffffff1673ffffffffffffffffffffffffffffffffffffffff168152602001908152602001600020541415905090565b600060026007836040516109229190611d3f565b908152602001604051809103902060000160149054906101000a900460ff1660ff16036109d45760006005600060078560405161095f9190611d3f565b908152602001604051809103902060000160009054906101000a900473ffffffffffffffffffffffffffffffffffffffff1673ffffffffffffffffffffffffffffffffffffffff1673ffffffffffffffffffffffffffffffffffffffff168152602001908152602001600020541190506109d9565b600090505b919050565b600073ffffffffffffffffffffffffffffffffffffffff168173ffffffffffffffffffffffffffffffffffffffff1603610a1757600080fd5b6001600783604051610a299190611d3f565b908152602001604051809103902060000160149054906101000a900460ff1660ff1603610ab55780600783604051610a619190611d3f565b908152602001604051809103902060000160006101000a81548173ffffffffffffffffffffffffffffffffffffffff021916908373ffffffffffffffffffffffffffffffffffffffff160217905550610b8f565b3373ffffffffffffffffffffffffffffffffffffffff16600783604051610adc9190611d3f565b908152602001604051809103902060000160009054906101000a900473ffffffffffffffffffffffffffffffffffffffff1673ffffffffffffffffffffffffffffffffffffffff1614610b2e57600080fd5b80600783604051610b3f9190611d3f565b908152602001604051809103902060000160006101000a81548173ffffffffffffffffffffffffffffffffffffffff021916908373ffffffffffffffffffffffffffffffffffffffff1602179055505b5050565b600073ffffffffffffffffffffffffffffffffffffffff16600782604051610bbb9190611d3f565b908152602001604051809103902060000160009054906101000a900473ffffffffffffffffffffffffffffffffffffffff1673ffffffffffffffffffffffffffffffffffffffff1614610c0d57600080fd5b6000600560003373ffffffffffffffffffffffffffffffffffffffff1673ffffffffffffffffffffffffffffffffffffffff1681526020019081526020016000205403610d115760405180604001604052803373ffffffffffffffffffffffffffffffffffffffff168152602001600160ff16815250600782604051610c939190611d3f565b908152602001604051809103902060008201518160000160006101000a81548173ffffffffffffffffffffffffffffffffffffffff021916908373ffffffffffffffffffffffffffffffffffffffff16021790555060208201518160000160146101000a81548160ff021916908360ff160217905550905050610dca565b60405180604001604052803373ffffffffffffffffffffffffffffffffffffffff168152602001600260ff16815250600782604051610d509190611d3f565b908152602001604051809103902060008201518160000160006101000a81548173ffffffffffffffffffffffffffffffffffffffff021916908373ffffffffffffffffffffffffffffffffffffffff16021790555060208201518160000160146101000a81548160ff021916908360ff1602179055509050505b50565b606060048054610ddc90611b2b565b80601f0160208091040260200160405190810160405280929190818152602001828054610e0890611b2b565b8015610e555780601f10610e2a57610100808354040283529160200191610e55565b820191906000526020600020905b815481529060010190602001808311610e3857829003601f168201915b5050505050905090565b600080610e6a6111e6565b90506000610e78828661104e565b905083811015610ebd576040517f08c379a0000000000000000000000000000000000000000000000000000000008152600401610eb490611dc8565b60405180910390fd5b610eca82868684036111ee565b60019250505092915050565b600080600783604051610ee99190611d3f565b908152602001604051809103902060000160009054906101000a900473ffffffffffffffffffffffffffffffffffffffff16600784604051610f2b9190611d3f565b908152602001604051809103902060000160149054906101000a900460ff1691509150915091565b600080610f5e6111e6565b9050610f6b8185856113de565b600191505092915050565b3373ffffffffffffffffffffffffffffffffffffffff16600782604051610f9d9190611d3f565b908152602001604051809103902060000160009054906101000a900473ffffffffffffffffffffffffffffffffffffffff1673ffffffffffffffffffffffffffffffffffffffff1614610fef57600080fd5b600781604051610fff9190611d3f565b9081526020016040518091039020600080820160006101000a81549073ffffffffffffffffffffffffffffffffffffffff02191690556000820160146101000a81549060ff0219169055505050565b6000600160008473ffffffffffffffffffffffffffffffffffffffff1673ffffffffffffffffffffffffffffffffffffffff16815260200190815260200160002060008373ffffffffffffffffffffffffffffffffffffffff1673ffffffffffffffffffffffffffffffffffffffff16815260200190815260200160002054905092915050565b6000600560008373ffffffffffffffffffffffffffffffffffffffff1673ffffffffffffffffffffffffffffffffffffffff168152602001908152602001600020549050919050565b6000600560003373ffffffffffffffffffffffffffffffffffffffff1673ffffffffffffffffffffffffffffffffffffffff168152602001908152602001600020541161116a57600080fd5b600160078260405161117c9190611d3f565b908152602001604051809103902060000160149054906101000a900460ff1660ff16146111a857600080fd5b60026007826040516111ba9190611d3f565b908152602001604051809103902060000160146101000a81548160ff021916908360ff16021790555050565b600033905090565b600073ffffffffffffffffffffffffffffffffffffffff168373ffffffffffffffffffffffffffffffffffffffff160361125d576040517f08c379a000000000000000000000000000000000000000000000000000000000815260040161125490611e5a565b60405180910390fd5b600073ffffffffffffffffffffffffffffffffffffffff168273ffffffffffffffffffffffffffffffffffffffff16036112cc576040517f08c379a00000000000000000000000000000000000000000000000000000000081526004016112c390611eec565b60405180910390fd5b80600160008573ffffffffffffffffffffffffffffffffffffffff1673ffffffffffffffffffffffffffffffffffffffff16815260200190815260200160002060008473ffffffffffffffffffffffffffffffffffffffff1673ffffffffffffffffffffffffffffffffffffffff16815260200190815260200160002081905550505050565b600061135e848461104e565b90507fffffffffffffffffffffffffffffffffffffffffffffffffffffffffffffffff81146113d857818110156113ca576040517f08c379a00000000000000000000000000000000000000000000000000000000081526004016113c190611f58565b60405180910390fd5b6113d784848484036111ee565b5b50505050565b600073ffffffffffffffffffffffffffffffffffffffff168373ffffffffffffffffffffffffffffffffffffffff160361144d576040517f08c379a000000000000000000000000000000000000000000000000000000000815260040161144490611fea565b60405180910390fd5b600073ffffffffffffffffffffffffffffffffffffffff168273ffffffffffffffffffffffffffffffffffffffff16036114bc576040517f08c379a00000000000000000000000000000000000000000000000000000000081526004016114b39061207c565b60405180910390fd5b6114c78383836115ef565b60008060008573ffffffffffffffffffffffffffffffffffffffff1673ffffffffffffffffffffffffffffffffffffffff1681526020019081526020016000205490508181101561154d576040517f08c379a00000000000000000000000000000000000000000000000000000000081526004016115449061210e565b60405180910390fd5b8181036000808673ffffffffffffffffffffffffffffffffffffffff1673ffffffffffffffffffffffffffffffffffffffff16815260200190815260200160002081905550816000808573ffffffffffffffffffffffffffffffffffffffff1673ffffffffffffffffffffffffffffffffffffffff168152602001908152602001600020600082825401925050819055506115e98484846115f4565b50505050565b505050565b505050565b600081519050919050565b600082825260208201905092915050565b60005b83811015611633578082015181840152602081019050611618565b60008484015250505050565b6000601f19601f8301169050919050565b600061165b826115f9565b6116658185611604565b9350611675818560208601611615565b61167e8161163f565b840191505092915050565b600060208201905081810360008301526116a38184611650565b905092915050565b6000604051905090565b600080fd5b600080fd5b600073ffffffffffffffffffffffffffffffffffffffff82169050919050565b60006116ea826116bf565b9050919050565b6116fa816116df565b811461170557600080fd5b50565b600081359050611717816116f1565b92915050565b6000819050919050565b6117308161171d565b811461173b57600080fd5b50565b60008135905061174d81611727565b92915050565b6000806040838503121561176a576117696116b5565b5b600061177885828601611708565b92505060206117898582860161173e565b9150509250929050565b60008115159050919050565b6117a881611793565b82525050565b60006020820190506117c3600083018461179f565b92915050565b6117d28161171d565b82525050565b60006020820190506117ed60008301846117c9565b92915050565b60008060006060848603121561180c5761180b6116b5565b5b600061181a86828701611708565b935050602061182b86828701611708565b925050604061183c8682870161173e565b9150509250925092565b600060ff82169050919050565b61185c81611846565b82525050565b60006020820190506118776000830184611853565b92915050565b600060208284031215611893576118926116b5565b5b60006118a184828501611708565b91505092915050565b600080fd5b600080fd5b7f4e487b7100000000000000000000000000000000000000000000000000000000600052604160045260246000fd5b6118ec8261163f565b810181811067ffffffffffffffff8211171561190b5761190a6118b4565b5b80604052505050565b600061191e6116ab565b905061192a82826118e3565b919050565b600067ffffffffffffffff82111561194a576119496118b4565b5b6119538261163f565b9050602081019050919050565b82818337600083830152505050565b600061198261197d8461192f565b611914565b90508281526020810184848401111561199e5761199d6118af565b5b6119a9848285611960565b509392505050565b600082601f8301126119c6576119c56118aa565b5b81356119d684826020860161196f565b91505092915050565b6000602082840312156119f5576119f46116b5565b5b600082013567ffffffffffffffff811115611a1357611a126116ba565b5b611a1f848285016119b1565b91505092915050565b60008060408385031215611a3f57611a3e6116b5565b5b600083013567ffffffffffffffff811115611a5d57611a5c6116ba565b5b611a69858286016119b1565b9250506020611a7a85828601611708565b9150509250929050565b611a8d816116df565b82525050565b6000604082019050611aa86000830185611a84565b611ab56020830184611853565b9392505050565b60008060408385031215611ad357611ad26116b5565b5b6000611ae185828601611708565b9250506020611af285828601611708565b9150509250929050565b7f4e487b7100000000000000000000000000000000000000000000000000000000600052602260045260246000fd5b60006002820490506001821680611b4357607f821691505b602082108103611b5657611b55611afc565b5b50919050565b7f4e487b7100000000000000000000000000000000000000000000000000000000600052601160045260246000fd5b6000611b968261171d565b9150611ba18361171d565b9250828201905080821115611bb957611bb8611b5c565b5b92915050565b7f416c7265616479207374616b6564000000000000000000000000000000000000600082015250565b6000611bf5600e83611604565b9150611c0082611bbf565b602082019050919050565b60006020820190508181036000830152611c2481611be8565b9050919050565b7f4e6f7420656e6f75676820435344000000000000000000000000000000000000600082015250565b6000611c61600e83611604565b9150611c6c82611c2b565b602082019050919050565b60006020820190508181036000830152611c9081611c54565b9050919050565b7f4e6f7420656e6f7567682044504b000000000000000000000000000000000000600082015250565b6000611ccd600e83611604565b9150611cd882611c97565b602082019050919050565b60006020820190508181036000830152611cfc81611cc0565b9050919050565b600081905092915050565b6000611d19826115f9565b611d238185611d03565b9350611d33818560208601611615565b80840191505092915050565b6000611d4b8284611d0e565b915081905092915050565b7f45524332303a2064656372656173656420616c6c6f77616e63652062656c6f7760008201527f207a65726f000000000000000000000000000000000000000000000000000000602082015250565b6000611db2602583611604565b9150611dbd82611d56565b604082019050919050565b60006020820190508181036000830152611de181611da5565b9050919050565b7f45524332303a20617070726f76652066726f6d20746865207a65726f2061646460008201527f7265737300000000000000000000000000000000000000000000000000000000602082015250565b6000611e44602483611604565b9150611e4f82611de8565b604082019050919050565b60006020820190508181036000830152611e7381611e37565b9050919050565b7f45524332303a20617070726f766520746f20746865207a65726f20616464726560008201527f7373000000000000000000000000000000000000000000000000000000000000602082015250565b6000611ed6602283611604565b9150611ee182611e7a565b604082019050919050565b60006020820190508181036000830152611f0581611ec9565b9050919050565b7f45524332303a20696e73756666696369656e7420616c6c6f77616e6365000000600082015250565b6000611f42601d83611604565b9150611f4d82611f0c565b602082019050919050565b60006020820190508181036000830152611f7181611f35565b9050919050565b7f45524332303a207472616e736665722066726f6d20746865207a65726f20616460008201527f6472657373000000000000000000000000000000000000000000000000000000602082015250565b6000611fd4602583611604565b9150611fdf82611f78565b604082019050919050565b6000602082019050818103600083015261200381611fc7565b9050919050565b7f45524332303a207472616e7366657220746f20746865207a65726f206164647260008201527f6573730000000000000000000000000000000000000000000000000000000000602082015250565b6000612066602383611604565b91506120718261200a565b604082019050919050565b6000602082019050818103600083015261209581612059565b9050919050565b7f45524332303a207472616e7366657220616d6f756e742065786365656473206260008201527f616c616e63650000000000000000000000000000000000000000000000000000602082015250565b60006120f8602683611604565b91506121038261209c565b604082019050919050565b60006020820190508181036000830152612127816120eb565b905091905056fea2646970667358221220f5d7a3649f273b96e06abddaca2d9878dbbe6bfb9886d938ff391dde364e914664736f6c63430008110033",
  "linkReferences": {},
  "deployedLinkReferences": {}
}